{
  "_format": "hh-sol-artifact-1",
  "contractName": "ShineLP",
  "sourceName": "contracts/ShineLP.sol",
  "abi": [
    {
      "inputs": [
        {
          "internalType": "address",
          "name": "_shineTokenAddress",
          "type": "address"
        }
      ],
      "stateMutability": "nonpayable",
      "type": "constructor"
    },
    {
      "inputs": [
        {
          "internalType": "address",
          "name": "owner",
          "type": "address"
        }
      ],
      "name": "OwnableInvalidOwner",
      "type": "error"
    },
    {
      "inputs": [
        {
          "internalType": "address",
          "name": "account",
          "type": "address"
        }
      ],
      "name": "OwnableUnauthorizedAccount",
      "type": "error"
    },
    {
      "inputs": [],
      "name": "ReentrancyGuardReentrantCall",
      "type": "error"
    },
    {
      "anonymous": false,
      "inputs": [
        {
          "indexed": true,
          "internalType": "address",
          "name": "provider",
          "type": "address"
        },
        {
          "indexed": false,
          "internalType": "uint256",
          "name": "ethAmount",
          "type": "uint256"
        },
        {
          "indexed": false,
          "internalType": "uint256",
          "name": "shineAmount",
          "type": "uint256"
        }
      ],
      "name": "LiquidityAdded",
      "type": "event"
    },
    {
      "anonymous": false,
      "inputs": [
        {
          "indexed": true,
          "internalType": "address",
          "name": "provider",
          "type": "address"
        },
        {
          "indexed": false,
          "internalType": "uint256",
          "name": "ethAmount",
          "type": "uint256"
        },
        {
          "indexed": false,
          "internalType": "uint256",
          "name": "shineAmount",
          "type": "uint256"
        }
      ],
      "name": "LiquidityRemoved",
      "type": "event"
    },
    {
      "anonymous": false,
      "inputs": [
        {
          "indexed": true,
          "internalType": "address",
          "name": "previousOwner",
          "type": "address"
        },
        {
          "indexed": true,
          "internalType": "address",
          "name": "newOwner",
          "type": "address"
        }
      ],
      "name": "OwnershipTransferred",
      "type": "event"
    },
    {
      "anonymous": false,
      "inputs": [
        {
          "indexed": false,
          "internalType": "uint256",
          "name": "newRate",
          "type": "uint256"
        }
      ],
      "name": "RateUpdated",
      "type": "event"
    },
    {
      "anonymous": false,
      "inputs": [
        {
          "indexed": true,
          "internalType": "address",
          "name": "user",
          "type": "address"
        },
        {
          "indexed": false,
          "internalType": "uint256",
          "name": "ethAmount",
          "type": "uint256"
        },
        {
          "indexed": false,
          "internalType": "uint256",
          "name": "shineAmount",
          "type": "uint256"
        }
      ],
      "name": "SwapETHForShine",
      "type": "event"
    },
    {
      "anonymous": false,
      "inputs": [
        {
          "indexed": true,
          "internalType": "address",
          "name": "user",
          "type": "address"
        },
        {
          "indexed": false,
          "internalType": "uint256",
          "name": "shineAmount",
          "type": "uint256"
        },
        {
          "indexed": false,
          "internalType": "uint256",
          "name": "ethAmount",
          "type": "uint256"
        }
      ],
      "name": "SwapShineForETH",
      "type": "event"
    },
    {
      "inputs": [],
      "name": "addLiquidity",
      "outputs": [],
      "stateMutability": "payable",
      "type": "function"
    },
    {
      "inputs": [],
      "name": "owner",
      "outputs": [
        {
          "internalType": "address",
          "name": "",
          "type": "address"
        }
      ],
      "stateMutability": "view",
      "type": "function"
    },
    {
      "inputs": [],
      "name": "rate",
      "outputs": [
        {
          "internalType": "uint256",
          "name": "",
          "type": "uint256"
        }
      ],
      "stateMutability": "view",
      "type": "function"
    },
    {
      "inputs": [
        {
          "internalType": "uint256",
          "name": "_ethAmount",
          "type": "uint256"
        },
        {
          "internalType": "uint256",
          "name": "_shineAmount",
          "type": "uint256"
        }
      ],
      "name": "removeLiquidity",
      "outputs": [],
      "stateMutability": "nonpayable",
      "type": "function"
    },
    {
      "inputs": [],
      "name": "renounceOwnership",
      "outputs": [],
      "stateMutability": "nonpayable",
      "type": "function"
    },
    {
      "inputs": [],
      "name": "shineToken",
      "outputs": [
        {
          "internalType": "contract IERC20",
          "name": "",
          "type": "address"
        }
      ],
      "stateMutability": "view",
      "type": "function"
    },
    {
      "inputs": [],
      "name": "swapETHForShine",
      "outputs": [],
      "stateMutability": "payable",
      "type": "function"
    },
    {
      "inputs": [
        {
          "internalType": "uint256",
          "name": "_shineAmount",
          "type": "uint256"
        }
      ],
      "name": "swapShineForETH",
      "outputs": [],
      "stateMutability": "nonpayable",
      "type": "function"
    },
    {
      "inputs": [
        {
          "internalType": "address",
          "name": "newOwner",
          "type": "address"
        }
      ],
      "name": "transferOwnership",
      "outputs": [],
      "stateMutability": "nonpayable",
      "type": "function"
    },
    {
      "inputs": [
        {
          "internalType": "uint256",
          "name": "_newRate",
          "type": "uint256"
        }
      ],
      "name": "updateRate",
      "outputs": [],
      "stateMutability": "nonpayable",
      "type": "function"
    },
    {
      "stateMutability": "payable",
      "type": "receive"
    }
  ],
  "bytecode": "0x60a06040526103e86002553480156200001757600080fd5b5060405162001de038038062001de083398181016040528101906200003d9190620002a7565b33600073ffffffffffffffffffffffffffffffffffffffff168173ffffffffffffffffffffffffffffffffffffffff1603620000b35760006040517f1e4fbdf7000000000000000000000000000000000000000000000000000000008152600401620000aa9190620002ea565b60405180910390fd5b620000c4816200017960201b60201c565b5060018081905550600073ffffffffffffffffffffffffffffffffffffffff168173ffffffffffffffffffffffffffffffffffffffff16036200013e576040517f08c379a0000000000000000000000000000000000000000000000000000000008152600401620001359062000368565b60405180910390fd5b8073ffffffffffffffffffffffffffffffffffffffff1660808173ffffffffffffffffffffffffffffffffffffffff1681525050506200038a565b60008060009054906101000a900473ffffffffffffffffffffffffffffffffffffffff169050816000806101000a81548173ffffffffffffffffffffffffffffffffffffffff021916908373ffffffffffffffffffffffffffffffffffffffff1602179055508173ffffffffffffffffffffffffffffffffffffffff168173ffffffffffffffffffffffffffffffffffffffff167f8be0079c531659141344cd1fd0a4f28419497f9722a3daafe3b4186f6b6457e060405160405180910390a35050565b600080fd5b600073ffffffffffffffffffffffffffffffffffffffff82169050919050565b60006200026f8262000242565b9050919050565b620002818162000262565b81146200028d57600080fd5b50565b600081519050620002a18162000276565b92915050565b600060208284031215620002c057620002bf6200023d565b5b6000620002d08482850162000290565b91505092915050565b620002e48162000262565b82525050565b6000602082019050620003016000830184620002d9565b92915050565b600082825260208201905092915050565b7f496e76616c6964205348494e4520746f6b656e20616464726573730000000000600082015250565b600062000350601b8362000307565b91506200035d8262000318565b602082019050919050565b60006020820190508181036000830152620003838162000341565b9050919050565b608051611a09620003d7600039600081816102570152818161033401528181610586015281816106bc015281816108f501528181610a9901528181610bdd0152610c420152611a096000f3fe6080604052600436106100955760003560e01c80639438120c116100595780639438120c146101415780639d7de6b31461016a5780639de07ea714610193578063e8078d94146101be578063f2fde38b146101c85761009c565b80632c4e722e146100a157806349d6f83b146100cc57806369ea1771146100d6578063715018a6146100ff5780638da5cb5b146101165761009c565b3661009c57005b600080fd5b3480156100ad57600080fd5b506100b66101f1565b6040516100c39190610f33565b60405180910390f35b6100d46101f7565b005b3480156100e257600080fd5b506100fd60048036038101906100f89190610f7f565b61046e565b005b34801561010b57600080fd5b506101146104fa565b005b34801561012257600080fd5b5061012b61050e565b6040516101389190610fed565b60405180910390f35b34801561014d57600080fd5b5061016860048036038101906101639190610f7f565b610537565b005b34801561017657600080fd5b50610191600480360381019061018c9190611008565b6108a7565b005b34801561019f57600080fd5b506101a8610bdb565b6040516101b591906110a7565b60405180910390f35b6101c6610bff565b005b3480156101d457600080fd5b506101ef60048036038101906101ea91906110ee565b610cf2565b005b60025481565b6101ff610d78565b60003411610242576040517f08c379a000000000000000000000000000000000000000000000000000000000815260040161023990611178565b60405180910390fd5b60006002543461025291906111c7565b9050807f000000000000000000000000000000000000000000000000000000000000000073ffffffffffffffffffffffffffffffffffffffff166370a08231306040518263ffffffff1660e01b81526004016102ae9190610fed565b602060405180830381865afa1580156102cb573d6000803e3d6000fd5b505050506040513d601f19601f820116820180604052508101906102ef919061121e565b1015610330576040517f08c379a0000000000000000000000000000000000000000000000000000000008152600401610327906112bd565b60405180910390fd5b60007f000000000000000000000000000000000000000000000000000000000000000073ffffffffffffffffffffffffffffffffffffffff1663a9059cbb33846040518363ffffffff1660e01b815260040161038d9291906112dd565b6020604051808303816000875af11580156103ac573d6000803e3d6000fd5b505050506040513d601f19601f820116820180604052508101906103d0919061133e565b905080610412576040517f08c379a0000000000000000000000000000000000000000000000000000000008152600401610409906113b7565b60405180910390fd5b3373ffffffffffffffffffffffffffffffffffffffff167fab12fd3a5c1f9caedff084f073917540aef30612fdbb8012a582e81fb7713b68348460405161045a9291906113d7565b60405180910390a2505061046c610dbe565b565b610476610dc7565b600081116104b9576040517f08c379a00000000000000000000000000000000000000000000000000000000081526004016104b09061144c565b60405180910390fd5b806002819055507fe65c987b2e4668e09ba867026921588005b2b2063607a1e7e7d91683c8f91b7b816040516104ef9190610f33565b60405180910390a150565b610502610dc7565b61050c6000610e4e565b565b60008060009054906101000a900473ffffffffffffffffffffffffffffffffffffffff16905090565b61053f610d78565b60008111610582576040517f08c379a0000000000000000000000000000000000000000000000000000000008152600401610579906114de565b60405180910390fd5b60007f000000000000000000000000000000000000000000000000000000000000000073ffffffffffffffffffffffffffffffffffffffff166370a08231336040518263ffffffff1660e01b81526004016105dd9190610fed565b602060405180830381865afa1580156105fa573d6000803e3d6000fd5b505050506040513d601f19601f8201168201806040525081019061061e919061121e565b905081811015610663576040517f08c379a000000000000000000000000000000000000000000000000000000000815260040161065a9061154a565b60405180910390fd5b6000600254836106739190611599565b9050804710156106b8576040517f08c379a00000000000000000000000000000000000000000000000000000000081526004016106af9061163c565b60405180910390fd5b60007f000000000000000000000000000000000000000000000000000000000000000073ffffffffffffffffffffffffffffffffffffffff166323b872dd3330876040518463ffffffff1660e01b81526004016107179392919061165c565b6020604051808303816000875af1158015610736573d6000803e3d6000fd5b505050506040513d601f19601f8201168201806040525081019061075a919061133e565b90508061079c576040517f08c379a000000000000000000000000000000000000000000000000000000000815260040161079390611705565b60405180910390fd5b60003373ffffffffffffffffffffffffffffffffffffffff16836040516107c290611756565b60006040518083038185875af1925050503d80600081146107ff576040519150601f19603f3d011682016040523d82523d6000602084013e610804565b606091505b5050905080610848576040517f08c379a000000000000000000000000000000000000000000000000000000000815260040161083f906117b7565b60405180910390fd5b3373ffffffffffffffffffffffffffffffffffffffff167ff73ed463f8ffd871cc30c9db18486fb264f795262a351059404f351109dfc80986856040516108909291906113d7565b60405180910390a2505050506108a4610dbe565b50565b6108af610dc7565b814710156108f2576040517f08c379a00000000000000000000000000000000000000000000000000000000081526004016108e990611849565b60405180910390fd5b807f000000000000000000000000000000000000000000000000000000000000000073ffffffffffffffffffffffffffffffffffffffff166370a08231306040518263ffffffff1660e01b815260040161094c9190610fed565b602060405180830381865afa158015610969573d6000803e3d6000fd5b505050506040513d601f19601f8201168201806040525081019061098d919061121e565b10156109ce576040517f08c379a00000000000000000000000000000000000000000000000000000000081526004016109c5906118db565b60405180910390fd5b6000821115610a8c5760006109e161050e565b73ffffffffffffffffffffffffffffffffffffffff1683604051610a0490611756565b60006040518083038185875af1925050503d8060008114610a41576040519150601f19603f3d011682016040523d82523d6000602084013e610a46565b606091505b5050905080610a8a576040517f08c379a0000000000000000000000000000000000000000000000000000000008152600401610a8190611947565b60405180910390fd5b505b6000811115610b805760007f000000000000000000000000000000000000000000000000000000000000000073ffffffffffffffffffffffffffffffffffffffff1663a9059cbb610adb61050e565b846040518363ffffffff1660e01b8152600401610af99291906112dd565b6020604051808303816000875af1158015610b18573d6000803e3d6000fd5b505050506040513d601f19601f82011682018060405250810190610b3c919061133e565b905080610b7e576040517f08c379a0000000000000000000000000000000000000000000000000000000008152600401610b75906119b3565b60405180910390fd5b505b610b8861050e565b73ffffffffffffffffffffffffffffffffffffffff167f96cd817c6329656790ef8fba7675405193677d39619571282f5e21f3a98cd0598383604051610bcf9291906113d7565b60405180910390a25050565b7f000000000000000000000000000000000000000000000000000000000000000081565b610c07610dc7565b3373ffffffffffffffffffffffffffffffffffffffff167fac1d76749e5447b7b16f5ab61447e1bd502f3bb4807af3b28e620d1700a6ee45347f000000000000000000000000000000000000000000000000000000000000000073ffffffffffffffffffffffffffffffffffffffff166370a08231306040518263ffffffff1660e01b8152600401610c999190610fed565b602060405180830381865afa158015610cb6573d6000803e3d6000fd5b505050506040513d601f19601f82011682018060405250810190610cda919061121e565b604051610ce89291906113d7565b60405180910390a2565b610cfa610dc7565b600073ffffffffffffffffffffffffffffffffffffffff168173ffffffffffffffffffffffffffffffffffffffff1603610d6c5760006040517f1e4fbdf7000000000000000000000000000000000000000000000000000000008152600401610d639190610fed565b60405180910390fd5b610d7581610e4e565b50565b600260015403610db4576040517f3ee5aeb500000000000000000000000000000000000000000000000000000000815260040160405180910390fd5b6002600181905550565b60018081905550565b610dcf610f12565b73ffffffffffffffffffffffffffffffffffffffff16610ded61050e565b73ffffffffffffffffffffffffffffffffffffffff1614610e4c57610e10610f12565b6040517f118cdaa7000000000000000000000000000000000000000000000000000000008152600401610e439190610fed565b60405180910390fd5b565b60008060009054906101000a900473ffffffffffffffffffffffffffffffffffffffff169050816000806101000a81548173ffffffffffffffffffffffffffffffffffffffff021916908373ffffffffffffffffffffffffffffffffffffffff1602179055508173ffffffffffffffffffffffffffffffffffffffff168173ffffffffffffffffffffffffffffffffffffffff167f8be0079c531659141344cd1fd0a4f28419497f9722a3daafe3b4186f6b6457e060405160405180910390a35050565b600033905090565b6000819050919050565b610f2d81610f1a565b82525050565b6000602082019050610f486000830184610f24565b92915050565b600080fd5b610f5c81610f1a565b8114610f6757600080fd5b50565b600081359050610f7981610f53565b92915050565b600060208284031215610f9557610f94610f4e565b5b6000610fa384828501610f6a565b91505092915050565b600073ffffffffffffffffffffffffffffffffffffffff82169050919050565b6000610fd782610fac565b9050919050565b610fe781610fcc565b82525050565b60006020820190506110026000830184610fde565b92915050565b6000806040838503121561101f5761101e610f4e565b5b600061102d85828601610f6a565b925050602061103e85828601610f6a565b9150509250929050565b6000819050919050565b600061106d61106861106384610fac565b611048565b610fac565b9050919050565b600061107f82611052565b9050919050565b600061109182611074565b9050919050565b6110a181611086565b82525050565b60006020820190506110bc6000830184611098565b92915050565b6110cb81610fcc565b81146110d657600080fd5b50565b6000813590506110e8816110c2565b92915050565b60006020828403121561110457611103610f4e565b5b6000611112848285016110d9565b91505092915050565b600082825260208201905092915050565b7f4d7573742073656e642045544820746f20737761700000000000000000000000600082015250565b600061116260158361111b565b915061116d8261112c565b602082019050919050565b6000602082019050818103600083015261119181611155565b9050919050565b7f4e487b7100000000000000000000000000000000000000000000000000000000600052601160045260246000fd5b60006111d282610f1a565b91506111dd83610f1a565b92508282026111eb81610f1a565b9150828204841483151761120257611201611198565b5b5092915050565b60008151905061121881610f53565b92915050565b60006020828403121561123457611233610f4e565b5b600061124284828501611209565b91505092915050565b7f496e73756666696369656e74205348494e45206c697175696469747920696e2060008201527f74686520706f6f6c000000000000000000000000000000000000000000000000602082015250565b60006112a760288361111b565b91506112b28261124b565b604082019050919050565b600060208201905081810360008301526112d68161129a565b9050919050565b60006040820190506112f26000830185610fde565b6112ff6020830184610f24565b9392505050565b60008115159050919050565b61131b81611306565b811461132657600080fd5b50565b60008151905061133881611312565b92915050565b60006020828403121561135457611353610f4e565b5b600061136284828501611329565b91505092915050565b7f4661696c656420746f2073656e64205348494e4520746f6b656e730000000000600082015250565b60006113a1601b8361111b565b91506113ac8261136b565b602082019050919050565b600060208201905081810360008301526113d081611394565b9050919050565b60006040820190506113ec6000830185610f24565b6113f96020830184610f24565b9392505050565b7f52617465206d75737420626520706f7369746976650000000000000000000000600082015250565b600061143660158361111b565b915061144182611400565b602082019050919050565b6000602082019050818103600083015261146581611429565b9050919050565b7f4d7573742073776170206120706f73697469766520616d6f756e74206f66205360008201527f48494e4500000000000000000000000000000000000000000000000000000000602082015250565b60006114c860248361111b565b91506114d38261146c565b604082019050919050565b600060208201905081810360008301526114f7816114bb565b9050919050565b7f496e73756666696369656e74205348494e452062616c616e6365000000000000600082015250565b6000611534601a8361111b565b915061153f826114fe565b602082019050919050565b6000602082019050818103600083015261156381611527565b9050919050565b7f4e487b7100000000000000000000000000000000000000000000000000000000600052601260045260246000fd5b60006115a482610f1a565b91506115af83610f1a565b9250826115bf576115be61156a565b5b828204905092915050565b7f496e73756666696369656e7420455448206c697175696469747920696e20746860008201527f6520706f6f6c0000000000000000000000000000000000000000000000000000602082015250565b600061162660268361111b565b9150611631826115ca565b604082019050919050565b6000602082019050818103600083015261165581611619565b9050919050565b60006060820190506116716000830186610fde565b61167e6020830185610fde565b61168b6040830184610f24565b949350505050565b7f4661696c656420746f2072656365697665205348494e4520746f6b656e732e2060008201527f44696420796f7520617070726f76652066697273743f00000000000000000000602082015250565b60006116ef60368361111b565b91506116fa82611693565b604082019050919050565b6000602082019050818103600083015261171e816116e2565b9050919050565b600081905092915050565b50565b6000611740600083611725565b915061174b82611730565b600082019050919050565b600061176182611733565b9150819050919050565b7f4661696c656420746f2073656e64204554480000000000000000000000000000600082015250565b60006117a160128361111b565b91506117ac8261176b565b602082019050919050565b600060208201905081810360008301526117d081611794565b9050919050565b7f43616e6e6f74207769746864726177206d6f726520455448207468616e20617660008201527f61696c61626c6500000000000000000000000000000000000000000000000000602082015250565b600061183360278361111b565b915061183e826117d7565b604082019050919050565b6000602082019050818103600083015261186281611826565b9050919050565b7f43616e6e6f74207769746864726177206d6f7265205348494e45207468616e2060008201527f617661696c61626c650000000000000000000000000000000000000000000000602082015250565b60006118c560298361111b565b91506118d082611869565b604082019050919050565b600060208201905081810360008301526118f4816118b8565b9050919050565b7f455448207769746864726177616c206661696c65640000000000000000000000600082015250565b600061193160158361111b565b915061193c826118fb565b602082019050919050565b6000602082019050818103600083015261196081611924565b9050919050565b7f5348494e45207769746864726177616c206661696c6564000000000000000000600082015250565b600061199d60178361111b565b91506119a882611967565b602082019050919050565b600060208201905081810360008301526119cc81611990565b905091905056fea26469706673582212203f419bd566456aa9f3e24d73432c68234435064060983b90db4549e11d1c93c164736f6c63430008140033",
  "linkReferences": {},
  "deployedLinkReferences": {}
}