{
  "_format": "hh-sol-artifact-1",
  "contractName": "ShineToken",
  "sourceName": "contracts/ShineToken.sol",
  "abi": [
    {
      "inputs": [],
      "stateMutability": "nonpayable",
      "type": "constructor"
    },
    {
      "inputs": [
        {
          "internalType": "address",
          "name": "spender",
          "type": "address"
        },
        {
          "internalType": "uint256",
          "name": "allowance",
          "type": "uint256"
        },
        {
          "internalType": "uint256",
          "name": "needed",
          "type": "uint256"
        }
      ],
      "name": "ERC20InsufficientAllowance",
      "type": "error"
    },
    {
      "inputs": [
        {
          "internalType": "address",
          "name": "sender",
          "type": "address"
        },
        {
          "internalType": "uint256",
          "name": "balance",
          "type": "uint256"
        },
        {
          "internalType": "uint256",
          "name": "needed",
          "type": "uint256"
        }
      ],
      "name": "ERC20InsufficientBalance",
      "type": "error"
    },
    {
      "inputs": [
        {
          "internalType": "address",
          "name": "approver",
          "type": "address"
        }
      ],
      "name": "ERC20InvalidApprover",
      "type": "error"
    },
    {
      "inputs": [
        {
          "internalType": "address",
          "name": "receiver",
          "type": "address"
        }
      ],
      "name": "ERC20InvalidReceiver",
      "type": "error"
    },
    {
      "inputs": [
        {
          "internalType": "address",
          "name": "sender",
          "type": "address"
        }
      ],
      "name": "ERC20InvalidSender",
      "type": "error"
    },
    {
      "inputs": [
        {
          "internalType": "address",
          "name": "spender",
          "type": "address"
        }
      ],
      "name": "ERC20InvalidSpender",
      "type": "error"
    },
    {
      "inputs": [
        {
          "internalType": "address",
          "name": "owner",
          "type": "address"
        }
      ],
      "name": "OwnableInvalidOwner",
      "type": "error"
    },
    {
      "inputs": [
        {
          "internalType": "address",
          "name": "account",
          "type": "address"
        }
      ],
      "name": "OwnableUnauthorizedAccount",
      "type": "error"
    },
    {
      "inputs": [],
      "name": "ReentrancyGuardReentrantCall",
      "type": "error"
    },
    {
      "anonymous": false,
      "inputs": [
        {
          "indexed": true,
          "internalType": "address",
          "name": "owner",
          "type": "address"
        },
        {
          "indexed": true,
          "internalType": "address",
          "name": "spender",
          "type": "address"
        },
        {
          "indexed": false,
          "internalType": "uint256",
          "name": "value",
          "type": "uint256"
        }
      ],
      "name": "Approval",
      "type": "event"
    },
    {
      "anonymous": false,
      "inputs": [
        {
          "indexed": false,
          "internalType": "uint256",
          "name": "amount",
          "type": "uint256"
        },
        {
          "indexed": false,
          "internalType": "string",
          "name": "reason",
          "type": "string"
        }
      ],
      "name": "AutoBurn",
      "type": "event"
    },
    {
      "anonymous": false,
      "inputs": [
        {
          "indexed": false,
          "internalType": "uint256",
          "name": "feeAmount",
          "type": "uint256"
        },
        {
          "indexed": false,
          "internalType": "uint256",
          "name": "burnAmount",
          "type": "uint256"
        },
        {
          "indexed": false,
          "internalType": "uint256",
          "name": "lpAmount",
          "type": "uint256"
        }
      ],
      "name": "FeesCollected",
      "type": "event"
    },
    {
      "anonymous": false,
      "inputs": [
        {
          "indexed": false,
          "internalType": "bool",
          "name": "enabled",
          "type": "bool"
        }
      ],
      "name": "FeesToggled",
      "type": "event"
    },
    {
      "anonymous": false,
      "inputs": [
        {
          "indexed": true,
          "internalType": "address",
          "name": "previousOwner",
          "type": "address"
        },
        {
          "indexed": true,
          "internalType": "address",
          "name": "newOwner",
          "type": "address"
        }
      ],
      "name": "OwnershipTransferred",
      "type": "event"
    },
    {
      "anonymous": false,
      "inputs": [
        {
          "indexed": true,
          "internalType": "address",
          "name": "from",
          "type": "address"
        },
        {
          "indexed": true,
          "internalType": "address",
          "name": "to",
          "type": "address"
        },
        {
          "indexed": false,
          "internalType": "uint256",
          "name": "value",
          "type": "uint256"
        }
      ],
      "name": "Transfer",
      "type": "event"
    },
    {
      "inputs": [],
      "name": "MAX_SUPPLY",
      "outputs": [
        {
          "internalType": "uint256",
          "name": "",
          "type": "uint256"
        }
      ],
      "stateMutability": "view",
      "type": "function"
    },
    {
      "inputs": [],
      "name": "MIN_FEE_THRESHOLD",
      "outputs": [
        {
          "internalType": "uint256",
          "name": "",
          "type": "uint256"
        }
      ],
      "stateMutability": "view",
      "type": "function"
    },
    {
      "inputs": [],
      "name": "TRANSACTION_FEE",
      "outputs": [
        {
          "internalType": "uint256",
          "name": "",
          "type": "uint256"
        }
      ],
      "stateMutability": "view",
      "type": "function"
    },
    {
      "inputs": [
        {
          "internalType": "address",
          "name": "owner",
          "type": "address"
        },
        {
          "internalType": "address",
          "name": "spender",
          "type": "address"
        }
      ],
      "name": "allowance",
      "outputs": [
        {
          "internalType": "uint256",
          "name": "",
          "type": "uint256"
        }
      ],
      "stateMutability": "view",
      "type": "function"
    },
    {
      "inputs": [
        {
          "internalType": "address",
          "name": "spender",
          "type": "address"
        },
        {
          "internalType": "uint256",
          "name": "value",
          "type": "uint256"
        }
      ],
      "name": "approve",
      "outputs": [
        {
          "internalType": "bool",
          "name": "",
          "type": "bool"
        }
      ],
      "stateMutability": "nonpayable",
      "type": "function"
    },
    {
      "inputs": [
        {
          "internalType": "address",
          "name": "account",
          "type": "address"
        }
      ],
      "name": "balanceOf",
      "outputs": [
        {
          "internalType": "uint256",
          "name": "",
          "type": "uint256"
        }
      ],
      "stateMutability": "view",
      "type": "function"
    },
    {
      "inputs": [
        {
          "internalType": "uint256",
          "name": "amount",
          "type": "uint256"
        }
      ],
      "name": "burn",
      "outputs": [],
      "stateMutability": "nonpayable",
      "type": "function"
    },
    {
      "inputs": [],
      "name": "burnReserve",
      "outputs": [
        {
          "internalType": "address",
          "name": "",
          "type": "address"
        }
      ],
      "stateMutability": "view",
      "type": "function"
    },
    {
      "inputs": [],
      "name": "decimals",
      "outputs": [
        {
          "internalType": "uint8",
          "name": "",
          "type": "uint8"
        }
      ],
      "stateMutability": "view",
      "type": "function"
    },
    {
      "inputs": [],
      "name": "emergencyWithdraw",
      "outputs": [],
      "stateMutability": "nonpayable",
      "type": "function"
    },
    {
      "inputs": [
        {
          "internalType": "address",
          "name": "account",
          "type": "address"
        }
      ],
      "name": "excludeFromFees",
      "outputs": [],
      "stateMutability": "nonpayable",
      "type": "function"
    },
    {
      "inputs": [],
      "name": "feesEnabled",
      "outputs": [
        {
          "internalType": "bool",
          "name": "",
          "type": "bool"
        }
      ],
      "stateMutability": "view",
      "type": "function"
    },
    {
      "inputs": [],
      "name": "getTokenStats",
      "outputs": [
        {
          "internalType": "uint256",
          "name": "_totalSupply",
          "type": "uint256"
        },
        {
          "internalType": "uint256",
          "name": "_totalBurned",
          "type": "uint256"
        },
        {
          "internalType": "uint256",
          "name": "_totalFeesCollected",
          "type": "uint256"
        },
        {
          "internalType": "uint256",
          "name": "_transactionCount",
          "type": "uint256"
        },
        {
          "internalType": "uint256",
          "name": "_contractBalance",
          "type": "uint256"
        },
        {
          "internalType": "bool",
          "name": "_feesEnabled",
          "type": "bool"
        }
      ],
      "stateMutability": "view",
      "type": "function"
    },
    {
      "inputs": [
        {
          "internalType": "address",
          "name": "account",
          "type": "address"
        }
      ],
      "name": "includeInFees",
      "outputs": [],
      "stateMutability": "nonpayable",
      "type": "function"
    },
    {
      "inputs": [
        {
          "internalType": "address",
          "name": "",
          "type": "address"
        }
      ],
      "name": "isExcludedFromFees",
      "outputs": [
        {
          "internalType": "bool",
          "name": "",
          "type": "bool"
        }
      ],
      "stateMutability": "view",
      "type": "function"
    },
    {
      "inputs": [],
      "name": "lpRewardsPool",
      "outputs": [
        {
          "internalType": "address",
          "name": "",
          "type": "address"
        }
      ],
      "stateMutability": "view",
      "type": "function"
    },
    {
      "inputs": [],
      "name": "name",
      "outputs": [
        {
          "internalType": "string",
          "name": "",
          "type": "string"
        }
      ],
      "stateMutability": "view",
      "type": "function"
    },
    {
      "inputs": [],
      "name": "owner",
      "outputs": [
        {
          "internalType": "address",
          "name": "",
          "type": "address"
        }
      ],
      "stateMutability": "view",
      "type": "function"
    },
    {
      "inputs": [],
      "name": "processFees",
      "outputs": [],
      "stateMutability": "nonpayable",
      "type": "function"
    },
    {
      "inputs": [],
      "name": "renounceOwnership",
      "outputs": [],
      "stateMutability": "nonpayable",
      "type": "function"
    },
    {
      "inputs": [
        {
          "internalType": "address",
          "name": "_burnReserve",
          "type": "address"
        }
      ],
      "name": "setBurnReserve",
      "outputs": [],
      "stateMutability": "nonpayable",
      "type": "function"
    },
    {
      "inputs": [
        {
          "internalType": "address",
          "name": "_lpRewardsPool",
          "type": "address"
        }
      ],
      "name": "setLPRewardsPool",
      "outputs": [],
      "stateMutability": "nonpayable",
      "type": "function"
    },
    {
      "inputs": [],
      "name": "symbol",
      "outputs": [
        {
          "internalType": "string",
          "name": "",
          "type": "string"
        }
      ],
      "stateMutability": "view",
      "type": "function"
    },
    {
      "inputs": [
        {
          "internalType": "bool",
          "name": "enabled",
          "type": "bool"
        }
      ],
      "name": "toggleFees",
      "outputs": [],
      "stateMutability": "nonpayable",
      "type": "function"
    },
    {
      "inputs": [],
      "name": "totalBurned",
      "outputs": [
        {
          "internalType": "uint256",
          "name": "",
          "type": "uint256"
        }
      ],
      "stateMutability": "view",
      "type": "function"
    },
    {
      "inputs": [],
      "name": "totalFeesCollected",
      "outputs": [
        {
          "internalType": "uint256",
          "name": "",
          "type": "uint256"
        }
      ],
      "stateMutability": "view",
      "type": "function"
    },
    {
      "inputs": [],
      "name": "totalSupply",
      "outputs": [
        {
          "internalType": "uint256",
          "name": "",
          "type": "uint256"
        }
      ],
      "stateMutability": "view",
      "type": "function"
    },
    {
      "inputs": [],
      "name": "transactionCount",
      "outputs": [
        {
          "internalType": "uint256",
          "name": "",
          "type": "uint256"
        }
      ],
      "stateMutability": "view",
      "type": "function"
    },
    {
      "inputs": [
        {
          "internalType": "address",
          "name": "to",
          "type": "address"
        },
        {
          "internalType": "uint256",
          "name": "value",
          "type": "uint256"
        }
      ],
      "name": "transfer",
      "outputs": [
        {
          "internalType": "bool",
          "name": "",
          "type": "bool"
        }
      ],
      "stateMutability": "nonpayable",
      "type": "function"
    },
    {
      "inputs": [
        {
          "internalType": "address",
          "name": "from",
          "type": "address"
        },
        {
          "internalType": "address",
          "name": "to",
          "type": "address"
        },
        {
          "internalType": "uint256",
          "name": "value",
          "type": "uint256"
        }
      ],
      "name": "transferFrom",
      "outputs": [
        {
          "internalType": "bool",
          "name": "",
          "type": "bool"
        }
      ],
      "stateMutability": "nonpayable",
      "type": "function"
    },
    {
      "inputs": [
        {
          "internalType": "address",
          "name": "newOwner",
          "type": "address"
        }
      ],
      "name": "transferOwnership",
      "outputs": [],
      "stateMutability": "nonpayable",
      "type": "function"
    }
  ],
  "bytecode": "0x60806040526000600a60006101000a81548160ff0219169083151502179055503480156200002c57600080fd5b50336040518060400160405280600b81526020017f5368696e6520546f6b656e0000000000000000000000000000000000000000008152506040518060400160405280600581526020017f5348494e450000000000000000000000000000000000000000000000000000008152508160039081620000ab919062000b5a565b508060049081620000bd919062000b5a565b505050600073ffffffffffffffffffffffffffffffffffffffff168173ffffffffffffffffffffffffffffffffffffffff1603620001355760006040517f1e4fbdf70000000000000000000000000000000000000000000000000000000081526004016200012c919062000c86565b60405180910390fd5b6200014681620002a460201b60201c565b5060016006819055506200016c336a084595161401484a0000006200036a60201b60201c565b33600a60016101000a81548173ffffffffffffffffffffffffffffffffffffffff021916908373ffffffffffffffffffffffffffffffffffffffff16021790555033600b60006101000a81548173ffffffffffffffffffffffffffffffffffffffff021916908373ffffffffffffffffffffffffffffffffffffffff1602179055506001600c60003373ffffffffffffffffffffffffffffffffffffffff1673ffffffffffffffffffffffffffffffffffffffff16815260200190815260200160002060006101000a81548160ff0219169083151502179055506001600c60003073ffffffffffffffffffffffffffffffffffffffff1673ffffffffffffffffffffffffffffffffffffffff16815260200190815260200160002060006101000a81548160ff02191690831515021790555062000f32565b6000600560009054906101000a900473ffffffffffffffffffffffffffffffffffffffff16905081600560006101000a81548173ffffffffffffffffffffffffffffffffffffffff021916908373ffffffffffffffffffffffffffffffffffffffff1602179055508173ffffffffffffffffffffffffffffffffffffffff168173ffffffffffffffffffffffffffffffffffffffff167f8be0079c531659141344cd1fd0a4f28419497f9722a3daafe3b4186f6b6457e060405160405180910390a35050565b600073ffffffffffffffffffffffffffffffffffffffff168273ffffffffffffffffffffffffffffffffffffffff1603620003df5760006040517fec442f05000000000000000000000000000000000000000000000000000000008152600401620003d6919062000c86565b60405180910390fd5b620003f360008383620003f760201b60201c565b5050565b600073ffffffffffffffffffffffffffffffffffffffff168373ffffffffffffffffffffffffffffffffffffffff1614158015620004625750600073ffffffffffffffffffffffffffffffffffffffff168273ffffffffffffffffffffffffffffffffffffffff1614155b156200048357600960008154809291906200047d9062000cd2565b91905055505b600a60009054906101000a900460ff168015620004cd5750600073ffffffffffffffffffffffffffffffffffffffff168373ffffffffffffffffffffffffffffffffffffffff1614155b8015620005075750600073ffffffffffffffffffffffffffffffffffffffff168273ffffffffffffffffffffffffffffffffffffffff1614155b80156200055e5750600c60008473ffffffffffffffffffffffffffffffffffffffff1673ffffffffffffffffffffffffffffffffffffffff16815260200190815260200160002060009054906101000a900460ff16155b8015620005b55750600c60008373ffffffffffffffffffffffffffffffffffffffff1673ffffffffffffffffffffffffffffffffffffffff16815260200190815260200160002060009054906101000a900460ff16155b8015620005cb5750683635c9adc5dea000008110155b1562000697576000612710603283620005e5919062000d1f565b620005f1919062000d99565b90506000818362000603919062000dd1565b905060008211156200067c5762000622853084620006b060201b60201c565b816008600082825462000636919062000e0c565b925050819055507fa54e6c2fc0861aa9c991b26891d71059d517983b9e84b91020f42609c452eb9d82600080604051620006739392919062000e9b565b60405180910390a15b6200068f858583620006b060201b60201c565b5050620006ab565b620006aa838383620006b060201b60201c565b5b505050565b600073ffffffffffffffffffffffffffffffffffffffff168373ffffffffffffffffffffffffffffffffffffffff160362000706578060026000828254620006f9919062000e0c565b92505081905550620007dc565b60008060008573ffffffffffffffffffffffffffffffffffffffff1673ffffffffffffffffffffffffffffffffffffffff1681526020019081526020016000205490508181101562000795578381836040517fe450d38c0000000000000000000000000000000000000000000000000000000081526004016200078c9392919062000ed8565b60405180910390fd5b8181036000808673ffffffffffffffffffffffffffffffffffffffff1673ffffffffffffffffffffffffffffffffffffffff16815260200190815260200160002081905550505b600073ffffffffffffffffffffffffffffffffffffffff168273ffffffffffffffffffffffffffffffffffffffff160362000827578060026000828254039250508190555062000874565b806000808473ffffffffffffffffffffffffffffffffffffffff1673ffffffffffffffffffffffffffffffffffffffff168152602001908152602001600020600082825401925050819055505b8173ffffffffffffffffffffffffffffffffffffffff168373ffffffffffffffffffffffffffffffffffffffff167fddf252ad1be2c89b69c2b068fc378daa952ba7f163c4a11628f55a4df523b3ef83604051620008d3919062000f15565b60405180910390a3505050565b600081519050919050565b7f4e487b7100000000000000000000000000000000000000000000000000000000600052604160045260246000fd5b7f4e487b7100000000000000000000000000000000000000000000000000000000600052602260045260246000fd5b600060028204905060018216806200096257607f821691505b6020821081036200097857620009776200091a565b5b50919050565b60008190508160005260206000209050919050565b60006020601f8301049050919050565b600082821b905092915050565b600060088302620009e27fffffffffffffffffffffffffffffffffffffffffffffffffffffffffffffffff82620009a3565b620009ee8683620009a3565b95508019841693508086168417925050509392505050565b6000819050919050565b6000819050919050565b600062000a3b62000a3562000a2f8462000a06565b62000a10565b62000a06565b9050919050565b6000819050919050565b62000a578362000a1a565b62000a6f62000a668262000a42565b848454620009b0565b825550505050565b600090565b62000a8662000a77565b62000a9381848462000a4c565b505050565b5b8181101562000abb5762000aaf60008262000a7c565b60018101905062000a99565b5050565b601f82111562000b0a5762000ad4816200097e565b62000adf8462000993565b8101602085101562000aef578190505b62000b0762000afe8562000993565b83018262000a98565b50505b505050565b600082821c905092915050565b600062000b2f6000198460080262000b0f565b1980831691505092915050565b600062000b4a838362000b1c565b9150826002028217905092915050565b62000b6582620008e0565b67ffffffffffffffff81111562000b815762000b80620008eb565b5b62000b8d825462000949565b62000b9a82828562000abf565b600060209050601f83116001811462000bd2576000841562000bbd578287015190505b62000bc9858262000b3c565b86555062000c39565b601f19841662000be2866200097e565b60005b8281101562000c0c5784890151825560018201915060208501945060208101905062000be5565b8683101562000c2c578489015162000c28601f89168262000b1c565b8355505b6001600288020188555050505b505050505050565b600073ffffffffffffffffffffffffffffffffffffffff82169050919050565b600062000c6e8262000c41565b9050919050565b62000c808162000c61565b82525050565b600060208201905062000c9d600083018462000c75565b92915050565b7f4e487b7100000000000000000000000000000000000000000000000000000000600052601160045260246000fd5b600062000cdf8262000a06565b91507fffffffffffffffffffffffffffffffffffffffffffffffffffffffffffffffff820362000d145762000d1362000ca3565b5b600182019050919050565b600062000d2c8262000a06565b915062000d398362000a06565b925082820262000d498162000a06565b9150828204841483151762000d635762000d6262000ca3565b5b5092915050565b7f4e487b7100000000000000000000000000000000000000000000000000000000600052601260045260246000fd5b600062000da68262000a06565b915062000db38362000a06565b92508262000dc65762000dc562000d6a565b5b828204905092915050565b600062000dde8262000a06565b915062000deb8362000a06565b925082820390508181111562000e065762000e0562000ca3565b5b92915050565b600062000e198262000a06565b915062000e268362000a06565b925082820190508082111562000e415762000e4062000ca3565b5b92915050565b62000e528162000a06565b82525050565b6000819050919050565b600062000e8362000e7d62000e778462000e58565b62000a10565b62000a06565b9050919050565b62000e958162000e62565b82525050565b600060608201905062000eb2600083018662000e47565b62000ec1602083018562000e8a565b62000ed0604083018462000e8a565b949350505050565b600060608201905062000eef600083018662000c75565b62000efe602083018562000e47565b62000f0d604083018462000e47565b949350505050565b600060208201905062000f2c600083018462000e47565b92915050565b61222a8062000f426000396000f3fe608060405234801561001057600080fd5b50600436106101e55760003560e01c80638da5cb5b1161010f578063bf16257a116100a2578063db2e21bc11610071578063db2e21bc14610541578063dd62ed3e1461054b578063e57f14e11461057b578063f2fde38b14610597576101e5565b8063bf16257a146104cb578063caa66de2146104e9578063d1a2edf614610505578063d89135cd14610523576101e5565b8063a9059cbb116100de578063a9059cbb14610455578063b1b2353514610485578063b77bf600146104a3578063ba69ebed146104c1576101e5565b80638da5cb5b146103df57806395d89b41146103fd578063a64e4f8a1461041b578063a69ea77614610439576101e5565b8063313ce567116101875780635a3039ac116101565780635a3039ac1461036957806360c6d8ae1461038757806370a08231146103a5578063715018a6146103d5576101e5565b8063313ce567146102e157806332cb6b0c146102ff57806342966c681461031d5780634fbee19314610339576101e5565b806316a2f82a116101c357806316a2f82a1461025b57806318160ddd1461027757806323b872dd14610295578063306b60fb146102c5576101e5565b806306fdde03146101ea578063095ea7b314610208578063097cd9bf14610238575b600080fd5b6101f26105b3565b6040516101ff91906119c5565b60405180910390f35b610222600480360381019061021d9190611a80565b610645565b60405161022f9190611adb565b60405180910390f35b610240610668565b60405161025296959493929190611b05565b60405180910390f35b61027560048036038101906102709190611b66565b6106af565b005b61027f610712565b60405161028c9190611b93565b60405180910390f35b6102af60048036038101906102aa9190611bae565b61071c565b6040516102bc9190611adb565b60405180910390f35b6102df60048036038101906102da9190611b66565b61074b565b005b6102e961085e565b6040516102f69190611c1d565b60405180910390f35b610307610867565b6040516103149190611b93565b60405180910390f35b61033760048036038101906103329190611c38565b610876565b005b610353600480360381019061034e9190611b66565b610926565b6040516103609190611adb565b60405180910390f35b610371610946565b60405161037e9190611c74565b60405180910390f35b61038f61096c565b60405161039c9190611b93565b60405180910390f35b6103bf60048036038101906103ba9190611b66565b610972565b6040516103cc9190611b93565b60405180910390f35b6103dd6109ba565b005b6103e76109ce565b6040516103f49190611c74565b60405180910390f35b6104056109f8565b60405161041291906119c5565b60405180910390f35b610423610a8a565b6040516104309190611adb565b60405180910390f35b610453600480360381019061044e9190611cbb565b610a9d565b005b61046f600480360381019061046a9190611a80565b610af9565b60405161047c9190611adb565b60405180910390f35b61048d610b1c565b60405161049a9190611b93565b60405180910390f35b6104ab610b21565b6040516104b89190611b93565b60405180910390f35b6104c9610b27565b005b6104d3610c4c565b6040516104e09190611c74565b60405180910390f35b61050360048036038101906104fe9190611b66565b610c72565b005b61050d610d85565b60405161051a9190611b93565b60405180910390f35b61052b610d92565b6040516105389190611b93565b60405180910390f35b610549610d98565b005b61056560048036038101906105609190611ce8565b610dcc565b6040516105729190611b93565b60405180910390f35b61059560048036038101906105909190611b66565b610e53565b005b6105b160048036038101906105ac9190611b66565b610eb6565b005b6060600380546105c290611d57565b80601f01602080910402602001604051908101604052809291908181526020018280546105ee90611d57565b801561063b5780601f106106105761010080835404028352916020019161063b565b820191906000526020600020905b81548152906001019060200180831161061e57829003601f168201915b5050505050905090565b600080610650610f3c565b905061065d818585610f44565b600191505092915050565b600080600080600080610679610712565b955060075494506008549350600954925061069330610972565b9150600a60009054906101000a900460ff169050909192939495565b6106b7610f56565b6000600c60008373ffffffffffffffffffffffffffffffffffffffff1673ffffffffffffffffffffffffffffffffffffffff16815260200190815260200160002060006101000a81548160ff02191690831515021790555050565b6000600254905090565b600080610727610f3c565b9050610734858285610fdd565b61073f858585611072565b60019150509392505050565b610753610f56565b600073ffffffffffffffffffffffffffffffffffffffff168173ffffffffffffffffffffffffffffffffffffffff16036107c2576040517f08c379a00000000000000000000000000000000000000000000000000000000081526004016107b990611dd4565b60405180910390fd5b80600b60006101000a81548173ffffffffffffffffffffffffffffffffffffffff021916908373ffffffffffffffffffffffffffffffffffffffff1602179055506001600c60008373ffffffffffffffffffffffffffffffffffffffff1673ffffffffffffffffffffffffffffffffffffffff16815260200190815260200160002060006101000a81548160ff02191690831515021790555050565b60006012905090565b6a084595161401484a00000081565b61087e610f56565b8061088830610972565b10156108c9576040517f08c379a00000000000000000000000000000000000000000000000000000000081526004016108c090611e40565b60405180910390fd5b6108d33082611166565b80600760008282546108e59190611e8f565b925050819055507faac51c659e6be115ba6956f03c0335ab7081d876f9996eb6478c2e8eab6a781f8160405161091b9190611f0f565b60405180910390a150565b600c6020528060005260406000206000915054906101000a900460ff1681565b600b60009054906101000a900473ffffffffffffffffffffffffffffffffffffffff1681565b60085481565b60008060008373ffffffffffffffffffffffffffffffffffffffff1673ffffffffffffffffffffffffffffffffffffffff168152602001908152602001600020549050919050565b6109c2610f56565b6109cc60006111e8565b565b6000600560009054906101000a900473ffffffffffffffffffffffffffffffffffffffff16905090565b606060048054610a0790611d57565b80601f0160208091040260200160405190810160405280929190818152602001828054610a3390611d57565b8015610a805780601f10610a5557610100808354040283529160200191610a80565b820191906000526020600020905b815481529060010190602001808311610a6357829003601f168201915b5050505050905090565b600a60009054906101000a900460ff1681565b610aa5610f56565b80600a60006101000a81548160ff0219169083151502179055507fc97260ffb3df6b903cdfd59e3b5b21a896404903a8e8a83bf60ba3fca365fbe581604051610aee9190611adb565b60405180910390a150565b600080610b04610f3c565b9050610b11818585611072565b600191505092915050565b603281565b60095481565b610b2f610f56565b6000610b3a30610972565b905060008111610b7f576040517f08c379a0000000000000000000000000000000000000000000000000000000008152600401610b7690611f89565b60405180910390fd5b60006064603c83610b909190611fa9565b610b9a919061201a565b905060008183610baa919061204b565b90506000821115610c1057610bbf3083611166565b8160076000828254610bd19190611e8f565b925050819055507faac51c659e6be115ba6956f03c0335ab7081d876f9996eb6478c2e8eab6a781f82604051610c0791906120cb565b60405180910390a15b6000811115610c4757610c4630600b60009054906101000a900473ffffffffffffffffffffffffffffffffffffffff16836112ae565b5b505050565b600a60019054906101000a900473ffffffffffffffffffffffffffffffffffffffff1681565b610c7a610f56565b600073ffffffffffffffffffffffffffffffffffffffff168173ffffffffffffffffffffffffffffffffffffffff1603610ce9576040517f08c379a0000000000000000000000000000000000000000000000000000000008152600401610ce090611dd4565b60405180910390fd5b80600a60016101000a81548173ffffffffffffffffffffffffffffffffffffffff021916908373ffffffffffffffffffffffffffffffffffffffff1602179055506001600c60008373ffffffffffffffffffffffffffffffffffffffff1673ffffffffffffffffffffffffffffffffffffffff16815260200190815260200160002060006101000a81548160ff02191690831515021790555050565b683635c9adc5dea0000081565b60075481565b610da0610f56565b6000610dab30610972565b90506000811115610dc957610dc830610dc26109ce565b836112ae565b5b50565b6000600160008473ffffffffffffffffffffffffffffffffffffffff1673ffffffffffffffffffffffffffffffffffffffff16815260200190815260200160002060008373ffffffffffffffffffffffffffffffffffffffff1673ffffffffffffffffffffffffffffffffffffffff16815260200190815260200160002054905092915050565b610e5b610f56565b6001600c60008373ffffffffffffffffffffffffffffffffffffffff1673ffffffffffffffffffffffffffffffffffffffff16815260200190815260200160002060006101000a81548160ff02191690831515021790555050565b610ebe610f56565b600073ffffffffffffffffffffffffffffffffffffffff168173ffffffffffffffffffffffffffffffffffffffff1603610f305760006040517f1e4fbdf7000000000000000000000000000000000000000000000000000000008152600401610f279190611c74565b60405180910390fd5b610f39816111e8565b50565b600033905090565b610f5183838360016114d3565b505050565b610f5e610f3c565b73ffffffffffffffffffffffffffffffffffffffff16610f7c6109ce565b73ffffffffffffffffffffffffffffffffffffffff1614610fdb57610f9f610f3c565b6040517f118cdaa7000000000000000000000000000000000000000000000000000000008152600401610fd29190611c74565b60405180910390fd5b565b6000610fe98484610dcc565b90507fffffffffffffffffffffffffffffffffffffffffffffffffffffffffffffffff81101561106c578181101561105c578281836040517ffb8f41b2000000000000000000000000000000000000000000000000000000008152600401611053939291906120f9565b60405180910390fd5b61106b848484840360006114d3565b5b50505050565b600073ffffffffffffffffffffffffffffffffffffffff168373ffffffffffffffffffffffffffffffffffffffff16036110e45760006040517f96c6fd1e0000000000000000000000000000000000000000000000000000000081526004016110db9190611c74565b60405180910390fd5b600073ffffffffffffffffffffffffffffffffffffffff168273ffffffffffffffffffffffffffffffffffffffff16036111565760006040517fec442f0500000000000000000000000000000000000000000000000000000000815260040161114d9190611c74565b60405180910390fd5b6111618383836116aa565b505050565b600073ffffffffffffffffffffffffffffffffffffffff168273ffffffffffffffffffffffffffffffffffffffff16036111d85760006040517f96c6fd1e0000000000000000000000000000000000000000000000000000000081526004016111cf9190611c74565b60405180910390fd5b6111e4826000836116aa565b5050565b6000600560009054906101000a900473ffffffffffffffffffffffffffffffffffffffff16905081600560006101000a81548173ffffffffffffffffffffffffffffffffffffffff021916908373ffffffffffffffffffffffffffffffffffffffff1602179055508173ffffffffffffffffffffffffffffffffffffffff168173ffffffffffffffffffffffffffffffffffffffff167f8be0079c531659141344cd1fd0a4f28419497f9722a3daafe3b4186f6b6457e060405160405180910390a35050565b600073ffffffffffffffffffffffffffffffffffffffff168373ffffffffffffffffffffffffffffffffffffffff16036113005780600260008282546112f49190611e8f565b925050819055506113d3565b60008060008573ffffffffffffffffffffffffffffffffffffffff1673ffffffffffffffffffffffffffffffffffffffff1681526020019081526020016000205490508181101561138c578381836040517fe450d38c000000000000000000000000000000000000000000000000000000008152600401611383939291906120f9565b60405180910390fd5b8181036000808673ffffffffffffffffffffffffffffffffffffffff1673ffffffffffffffffffffffffffffffffffffffff16815260200190815260200160002081905550505b600073ffffffffffffffffffffffffffffffffffffffff168273ffffffffffffffffffffffffffffffffffffffff160361141c5780600260008282540392505081905550611469565b806000808473ffffffffffffffffffffffffffffffffffffffff1673ffffffffffffffffffffffffffffffffffffffff168152602001908152602001600020600082825401925050819055505b8173ffffffffffffffffffffffffffffffffffffffff168373ffffffffffffffffffffffffffffffffffffffff167fddf252ad1be2c89b69c2b068fc378daa952ba7f163c4a11628f55a4df523b3ef836040516114c69190611b93565b60405180910390a3505050565b600073ffffffffffffffffffffffffffffffffffffffff168473ffffffffffffffffffffffffffffffffffffffff16036115455760006040517fe602df0500000000000000000000000000000000000000000000000000000000815260040161153c9190611c74565b60405180910390fd5b600073ffffffffffffffffffffffffffffffffffffffff168373ffffffffffffffffffffffffffffffffffffffff16036115b75760006040517f94280d620000000000000000000000000000000000000000000000000000000081526004016115ae9190611c74565b60405180910390fd5b81600160008673ffffffffffffffffffffffffffffffffffffffff1673ffffffffffffffffffffffffffffffffffffffff16815260200190815260200160002060008573ffffffffffffffffffffffffffffffffffffffff1673ffffffffffffffffffffffffffffffffffffffff1681526020019081526020016000208190555080156116a4578273ffffffffffffffffffffffffffffffffffffffff168473ffffffffffffffffffffffffffffffffffffffff167f8c5be1e5ebec7d5bd14f71427d1e84f3dd0314c0f7b2291e5b200ac8c7c3b9258460405161169b9190611b93565b60405180910390a35b50505050565b600073ffffffffffffffffffffffffffffffffffffffff168373ffffffffffffffffffffffffffffffffffffffff16141580156117145750600073ffffffffffffffffffffffffffffffffffffffff168273ffffffffffffffffffffffffffffffffffffffff1614155b15611732576009600081548092919061172c90612130565b91905055505b600a60009054906101000a900460ff16801561177b5750600073ffffffffffffffffffffffffffffffffffffffff168373ffffffffffffffffffffffffffffffffffffffff1614155b80156117b45750600073ffffffffffffffffffffffffffffffffffffffff168273ffffffffffffffffffffffffffffffffffffffff1614155b801561180a5750600c60008473ffffffffffffffffffffffffffffffffffffffff1673ffffffffffffffffffffffffffffffffffffffff16815260200190815260200160002060009054906101000a900460ff16155b80156118605750600c60008373ffffffffffffffffffffffffffffffffffffffff1673ffffffffffffffffffffffffffffffffffffffff16815260200190815260200160002060009054906101000a900460ff16155b80156118755750683635c9adc5dea000008110155b1561192457600061271060328361188c9190611fa9565b611896919061201a565b9050600081836118a6919061204b565b90506000821115611912576118bc8530846112ae565b81600860008282546118ce9190611e8f565b925050819055507fa54e6c2fc0861aa9c991b26891d71059d517983b9e84b91020f42609c452eb9d82600080604051611909939291906121bd565b60405180910390a15b61191d8585836112ae565b5050611930565b61192f8383836112ae565b5b505050565b600081519050919050565b600082825260208201905092915050565b60005b8381101561196f578082015181840152602081019050611954565b60008484015250505050565b6000601f19601f8301169050919050565b600061199782611935565b6119a18185611940565b93506119b1818560208601611951565b6119ba8161197b565b840191505092915050565b600060208201905081810360008301526119df818461198c565b905092915050565b600080fd5b600073ffffffffffffffffffffffffffffffffffffffff82169050919050565b6000611a17826119ec565b9050919050565b611a2781611a0c565b8114611a3257600080fd5b50565b600081359050611a4481611a1e565b92915050565b6000819050919050565b611a5d81611a4a565b8114611a6857600080fd5b50565b600081359050611a7a81611a54565b92915050565b60008060408385031215611a9757611a966119e7565b5b6000611aa585828601611a35565b9250506020611ab685828601611a6b565b9150509250929050565b60008115159050919050565b611ad581611ac0565b82525050565b6000602082019050611af06000830184611acc565b92915050565b611aff81611a4a565b82525050565b600060c082019050611b1a6000830189611af6565b611b276020830188611af6565b611b346040830187611af6565b611b416060830186611af6565b611b4e6080830185611af6565b611b5b60a0830184611acc565b979650505050505050565b600060208284031215611b7c57611b7b6119e7565b5b6000611b8a84828501611a35565b91505092915050565b6000602082019050611ba86000830184611af6565b92915050565b600080600060608486031215611bc757611bc66119e7565b5b6000611bd586828701611a35565b9350506020611be686828701611a35565b9250506040611bf786828701611a6b565b9150509250925092565b600060ff82169050919050565b611c1781611c01565b82525050565b6000602082019050611c326000830184611c0e565b92915050565b600060208284031215611c4e57611c4d6119e7565b5b6000611c5c84828501611a6b565b91505092915050565b611c6e81611a0c565b82525050565b6000602082019050611c896000830184611c65565b92915050565b611c9881611ac0565b8114611ca357600080fd5b50565b600081359050611cb581611c8f565b92915050565b600060208284031215611cd157611cd06119e7565b5b6000611cdf84828501611ca6565b91505092915050565b60008060408385031215611cff57611cfe6119e7565b5b6000611d0d85828601611a35565b9250506020611d1e85828601611a35565b9150509250929050565b7f4e487b7100000000000000000000000000000000000000000000000000000000600052602260045260246000fd5b60006002820490506001821680611d6f57607f821691505b602082108103611d8257611d81611d28565b5b50919050565b7f496e76616c696420616464726573730000000000000000000000000000000000600082015250565b6000611dbe600f83611940565b9150611dc982611d88565b602082019050919050565b60006020820190508181036000830152611ded81611db1565b9050919050565b7f496e73756666696369656e7420636f6e74726163742062616c616e6365000000600082015250565b6000611e2a601d83611940565b9150611e3582611df4565b602082019050919050565b60006020820190508181036000830152611e5981611e1d565b9050919050565b7f4e487b7100000000000000000000000000000000000000000000000000000000600052601160045260246000fd5b6000611e9a82611a4a565b9150611ea583611a4a565b9250828201905080821115611ebd57611ebc611e60565b5b92915050565b7f4d616e75616c206275726e000000000000000000000000000000000000000000600082015250565b6000611ef9600b83611940565b9150611f0482611ec3565b602082019050919050565b6000604082019050611f246000830184611af6565b8181036020830152611f3581611eec565b905092915050565b7f4e6f206665657320746f2070726f636573730000000000000000000000000000600082015250565b6000611f73601283611940565b9150611f7e82611f3d565b602082019050919050565b60006020820190508181036000830152611fa281611f66565b9050919050565b6000611fb482611a4a565b9150611fbf83611a4a565b9250828202611fcd81611a4a565b91508282048414831517611fe457611fe3611e60565b5b5092915050565b7f4e487b7100000000000000000000000000000000000000000000000000000000600052601260045260246000fd5b600061202582611a4a565b915061203083611a4a565b9250826120405761203f611feb565b5b828204905092915050565b600061205682611a4a565b915061206183611a4a565b925082820390508181111561207957612078611e60565b5b92915050565b7f466565206275726e000000000000000000000000000000000000000000000000600082015250565b60006120b5600883611940565b91506120c08261207f565b602082019050919050565b60006040820190506120e06000830184611af6565b81810360208301526120f1816120a8565b905092915050565b600060608201905061210e6000830186611c65565b61211b6020830185611af6565b6121286040830184611af6565b949350505050565b600061213b82611a4a565b91507fffffffffffffffffffffffffffffffffffffffffffffffffffffffffffffffff820361216d5761216c611e60565b5b600182019050919050565b6000819050919050565b6000819050919050565b60006121a76121a261219d84612178565b612182565b611a4a565b9050919050565b6121b78161218c565b82525050565b60006060820190506121d26000830186611af6565b6121df60208301856121ae565b6121ec60408301846121ae565b94935050505056fea2646970667358221220ef209022c662f4c587f229266447756dbf0fc57cf43b16b5aea354582d9339dc64736f6c63430008140033",
  "linkReferences": {},
  "deployedLinkReferences": {}
}